:020000041000EA
:1000000000B5324B212058609868022188439860DF
:10001000D860186158612E4B002199600221596106
:100020000121F02299502B49196001219960352056
:1000300000F044F80222904214D00621196600F024
:1000400034F8196E01211966002018661A6600F04E
:100050002CF8196E196E196E052000F02FF8012189
:100060000842F9D1002199601B49196000215960AB
:100070001A491B48016001219960EB211966A021F2
:10008000196600F012F800219960164914480160C1
:100090000121996001BC002800D000471248134993
:1000A000086003C880F30888084703B5996A0420EC
:1000B0000142FBD001200142F8D103BD02B5186610
:1000C0001866FFF7F2FF186E186E02BD00000240BE
:1000D000000000180000070000035F00212200005C
:1000E000F4000018222000A00001001008ED00E03C
:1000F00000000000000000000000000074B24E7A12
:1001000000200420F7010010C3010010C5010010F9
:10011000C1010010C1010010C1010010C101001097
:10012000C1010010C1010010C1010010C701001081
:10013000C1010010C1010010C9010010CB01001065
:10014000CD010010CD010010CD010010CD01001037
:10015000CD010010CD010010CD010010CD01001027
:10016000CD010010CD010010CD010010CD01001017
:10017000CD010010CD010010CD010010CD01001007
:10018000CD010010CD010010CD010010CD010010F7
:10019000CD010010CD010010CD010010CD010010E7
:1001A000CD010010CD010010CD010010CD010010D7
:1001B000CD010010CD010010CD010010CD010010C7
:1001C00000BE00BE00BE00BE00BE00BEEFF3058054
:1001D000103800BEF2EB887144E901106CE901109F
:1001E0003402001090A31AE700201F49086006C8D7
:1001F00081F3088810471D48006800282FD10DA4FE
:100200000ECC002902D000F012F8F9E71849194A7B
:10021000002000E001C19142FCD1174988471749ED
:1002200088471749884700BEFDE701C901C29A42C5
:10023000FBD370476CE90110C0000020DC390020BE
:1002400088220210000004200000042088220210EE
:10025000001004200010042000000000704709482E
:1002600013F076FA0047000008ED00E0000000D02F
:10027000E0390020E0D0012005200110DDCC001085
:10028000392101105756000006005250ABB360539D
:1002900038E0011006005250861C030248E00110AD
:1002A000060052505422A29D58E001100500525001
:1002B000DE65F46888220210F8B5C0460448054B94
:1002C00010B5834203D0044B002B00D0984710BDDB
:1002D000DC390020DC390020000000000648074916
:1002E000091A8B10C90FC91810B5491003D0044B57
:1002F000002B00D0984710BDDC390020DC390020ED
:100300000000000010B5074C2378002B09D1FFF73F
:10031000D5FF054B002B02D0044800E000BF0123AD
:10032000237010BDE83C00200000000010AC01105C
:10033000054B10B5002B03D00449054800E000BF71
:10034000FFF7CCFF10BDC04600000000EC3C0020D1
:1003500010AC0110F0B54F464646D6469846C0B59B
:1003600086B00E9F0600474489469246BB420CD297
:10037000234B4446C5186B1E9D41063520002900BD
:10038000013410F06BF8BC42F8D1012342464946D3
:10039000300000930E9B18F093F980235B020293C8
:1003A000524653461203DB0113430393434641462F
:1003B0000E9A5B0192061343124A30001A400E9BBC
:1003C0001B050B43134305930F4B524649460493B9
:1003D00002AB18F0CDF91098119900220B4B13F0D5
:1003E0007CFC13F02FFD4B4659004944C900761898
:1003F000C836306006B0E0BCBA46B146A846F0BD8B
:100400000000E0AFE0FF0FFC000006500000F040ED
:1004100070B580254C006418E400D0346D010419D7
:100420002C438025144E2D06256025600C00D50236
:10043000B04200D00834114EE4033540A0262C43CE
:10044000F6051125B4460E4E043136682C4389005A
:100450009501654441182E606960AB6001239340AB
:10046000084AEC600B201360074910F055F9012190
:100470000B2010F00DF970BD00002050FD7F00FF33
:10048000A8D0012004240050C1000020F0B5DE46B1
:1004900057464E4645469346C022E0B5A7B01C934A
:1004A000349B06009A46359B52029946BE4B1B91DF
:1004B00018005521984615F095FAC12001214000F9
:1004C00015F058FA0400B94B0D2218604421B430DD
:1004D00015F088FA200076300D224421FF3015F007
:1004E00081FAC120400015F027FAC1220400B04B68
:1004F00044215200186015F075FA0D2200212000E9
:1005000015F070FA20000D220021C13015F06AFAB2
:10051000C120400015F010FAC1220400A54B44216F
:100520005200186015F05EFA1C220021200015F020
:1005300059FAA14815F000FA0400A04B44219E4A44
:10054000186015F04FFA0D220021200015F04AFA2C
:1005500020000D220021C13015F044FAC1204000D6
:1005600015F0EAF9C1220400954B88215200186069
:1005700015F038FA1C220021200015F033FA200073
:100580001C2244211C3015F02DFA20007A3009225B
:100590004421FF3015F026FAC120400015F0CCF9B7
:1005A000C122884D21005200286015F021FAC12097
:1005B000400015F0C1F9C1222100834C520068604F
:1005C000012515F015FA2000804917F071FF8021F0
:1005D00023680200AB4323607D4B0906802019602D
:1005E000196004237B4900060290039100930021C7
:1005F00033002000FFF7AEFE012017F049FF764BD5
:1006000002001860C123002120005B00FFF700FFFB
:100610001AF0AEFA23685F21AB432B43236000231B
:100620000CAA94465E26D027521824932593137063
:1006300007AB1F9304AB1E9301AB1D9305AB664440
:100640002193664C02AB1796357020933F062378B2
:10065000002BFCD0339B52461D7000232370127870
:10066000FF2A03D1179A1570524613703B691D4239
:1006700000D093E07D61309B0CAA04935B4603930A
:10068000534602934B461B68944601935F23634491
:1006900000934046179B25AA24A91AF0B1F93B699B
:1006A0001D4279D17D61179B1B78022B3CD0012B19
:1006B000CDD1002217990A703A69134272D17B6139
:1006C000C02255215202404615F08CF95F22329823
:1006D0000CAB9B181B7813903198259A2499129093
:1006E000309818931992219B1C9A1A91119043CA21
:1006F00043C343CA43C343CA43C343CA43C30A228F
:100700001B99209815F074F93698189B019048466B
:100710000068199A00901A99404603F055FF3B690A
:100720001D4237D17D6192E70023179A13703B6910
:100730001D4235D17D615F2232980CAB9B181B782E
:1007400015903198259A24991490309818931992FD
:100750001F9B1C9A1A91139043CA43C343CA43C3B5
:1007600043CA43C343CA43C30A2259461E9815F0DD
:100770003FF90A221B991D9815F03AF9484600687E
:10078000189B0090199A40461A9903F011FE3B6994
:100790001D42C7D0BD615AE7BD6184E7BD616AE70C
:1007A000BD61C8E7BB618BE708440020ACD00120E5
:1007B000B0D00120A8D0012043020000B4D0012015
:1007C0004CCB012038D00120000020503CAC01105F
:1007D000D0102050F194344000CC0120D1D0012021
:1007E000F0B557464E464546DE460C000121E0B5C1
:1007F0001E000D008BB0049314AB1F7833015BB265
:1008000025400393631C02959DB200950B40E51CA7
:10081000661D0693ABB20D400795B5B20E40089623
:10082000E61DB446984663460B4009934346203F75
:100830003901C91B7A4FB6B2BB46120276086D0861
:100840005B08B618AD189B18B246A9469846A71D76
:10085000009B261DA51CBFB2B6B2ADB201917F08A8
:1008600076086D085B0864089B18BF18B618AD18A9
:10087000A418019A9C465B46594493460F3384441E
:1008800004199B445B4600946446824486194519CA
:10089000B446C71956468144804480220F20AA4698
:1008A000059301947CE02C78039D04402C43009D2B
:1008B0002C705C0022420AD0069C019D002C00D0C6
:1008C0009FE02C78039D04402C43019D2C709C00DC
:1008D00022420CD0029C002C00D088E054462478A0
:1008E000039D04402C43A34654465D462570DC001E
:1008F00022420BD0079C002C7ED144462478039DD5
:1009000004402C43A34644465D4625701C01224208
:100910000BD0029C002C54D164462478039D0440E3
:100920002C43A34664465D4625705C0122420BD0F1
:10093000089C002C4AD14C462478039D04402C434B
:10094000A3464C465D4625709C01224207D0029C7E
:10095000002C40D13C78039D04402C433C70FF2484
:10096000DB011C4207D0099B002B3AD13378039C52
:1009700003402343337080235B009B46019B013679
:100980005B440193009B01375B440093059B01315D
:10099000FF36FF37D944DC44D844DA448B4237D0A1
:1009A00000240C570B78002C83DA029C009D002C4D
:1009B00000D178E72C78049D84432C43009D2C7053
:1009C00077E764462478049D8443A9E74C4624785D
:1009D000049D8443B3E73C78049D84432C433C70DE
:1009E000BDE73378049C834323433370C3E7544605
:1009F0002478049D844375E744462478049D844309
:100A00007FE72C78049D84432C43019D2C705EE786
:100A10000BB0F0BCBB46B246A946A046F0BDC046EE
:100A200018AD0110F0B557464E464546DE46E0B5D6
:100A30001F0087B010AB1B780591390149B2203BEC
:100A40008C4619001B015B1A3F4912025C180F31DA
:100A5000CB180493802398463B0003946746914645
:100A60000F249C4680235B004B449A46039B002244
:100A70001E786546059B019626E059088C46CC44B5
:100A80008B4661466646415CA143294381555946E0
:100A90005144465C0291A6432E4346540126B34678
:100AA000DC446646865D26403E43B346664659466C
:100AB000815502990131465C26403E43465402333B
:100AC00001329BB2082A2DD00199464691400E4230
:100AD000F5D001211942D0D15908029149448C46E0
:100AE0008346465CE34426403E43B4465E46614648
:100AF00031700299023351444618415CB44621409A
:100B00003943317059465E4609780132A143294381
:100B100031706146664609789BB2A1432943317022
:100B2000082AD1D1F932FF329246039B049A01334D
:100B3000AC460393D1449A4294D107B0F0BCBB4673
:100B4000B246A946A046F0BD18AD0110F0B5DE468C
:100B500057464E464546E0B585B00EAC2488A446BF
:100B60000FAC2478A3468024A400A14259D2A3420A
:100B700057D2803CA24254D2A44552D266465D1A56
:100B8000A846B41AE717E5197D404746A146FC1769
:100B90003F190192009302916740BD4248DA9942A1
:100BA00000D8D2E00124CF1AA046921B02D5023C05
:100BB0004A46A0465400E51B8B4232DC5B461B01D3
:100BC0005BB201930123D21B52009C460E339A461E
:100BD00013005A46C14602949846009C00920EE0CB
:100BE00052466710FF18C35D9343009A1343C355E1
:100BF000002D12DD4E4445440134A14211DB67460D
:100C000033022742ECD152466710FF18C35D1340F0
:100C1000019A1343C355002DECDC029B9B465D44B7
:100C2000EAE705B0F0BCBB46B246A946A046F0BD17
:100C300062453FD90124C91AA146931B002902DA53
:100C4000023C4146A1464C00A046E51A9445E8DC2A
:100C5000C91A4B000F215C468C46494627017CB2DD
:100C600001949946009C009112E06746E30F1B191E
:100C70005B105B18C15CB9435F463943C154002D1A
:100C800016DD009B4D449A4654440136B242C8DBFF
:100C9000012331022342E8D16746E30F1B195B10A1
:100CA0005B18C15C3940019F3943C154002DE8DC19
:100CB0004544EAE741460124002903DA0299023C4F
:100CC000CB1A9846434649465B000393591A94450C
:100CD000A7DB4D4642465B46521B01251B01A84639
:100CE0005BB20E355200A9466646019F9C46029DA6
:100CF0000094019215E04C46EB0F5B195B109B18BA
:100D0000C25CA2435C462243C254002919DD009B09
:100D10009A46019B55449A4651440137BE4200DA37
:100D20007FE743463A022B42E5D14C46EB0F5B1975
:100D30005B109B18C25C224064462243C2540029C7
:100D4000E5DC039B9A465144E7E74A460126002A20
:100D500004DA6246019C023EA21A91464A46444683
:100D600052009446121B8B4200DA5AE75946090199
:100D700049B200914946091B4900884601218A462B
:100D80000E318946614603915946019FB446029D42
:100D900001910FE04E466C106418015DB143019E55
:100DA00031430155002A13DD674442440135AB420B
:100DB00000DA36E7544639022C42EBD14E466C102D
:100DC0006418015D3140009E31430155002AEBDC7F
:100DD00003998B465A44E9E7F0B54E4657464546D7
:100DE000DE46E0B583B09A460CAB40CB90461A780D
:100DF000337881460C00002B21D097B2002A1ED0F8
:100E0000B922520090451AD2863200259346013607
:100E100005E001350A34AAB2A4B2BA420FD21A00D0
:100E2000203A5E2A08D85C4506D8009342465346CD
:100E300021004846FFF7D4FC735D002BE9D103B0D5
:100E4000F0BCBB46B246A946A046F0BDF0B54E4642
:100E500057464546DE46E0B583B09A460CAB40CBDC
:100E600090461A78337881460C00002B21D097B237
:100E7000002A1ED0B122520090451AD88E32002589
:100E80009346013605E001351434AAB2A4B2BA4241
:100E90000FD21A00203A5E2A08D85C4506D8009383
:100EA0004246534621004846FFF7BCFD735D002BC8
:100EB000E9D103B0F0BCBB46B246A946A046F0BD9E
:100EC000F0B54546DE4657464E46E0B58FB0069033
:100ED00019980793C44318AB1D7802910592E40F4B
:100EE000002D0DD0C317C6185E40002101239A00C3
:100EF000D3185B00B34200DD01340131A942F6DBB7
:100F0000A3001C1963000393C30F9A46C317C418A8
:100F10005C40092C00D8C6E0632C00D894E0FA238A
:100F20009B009C4200D2D0E0694B9C4200D8C9E0B3
:100F3000684B20009846684B01279946674B684DDF
:100F40009B4608E0464500D897E04E4500D8A4E00F
:100F50005E4500D8A4E06349060012F053FC390056
:100F60000437AE42EED8CD1C08AB9B4639000AAB25
:100F700051442D2258460493089317F0FFFD089B17
:100F80009C46E244584B013D9846514B5544994686
:100F90002000642112F036FC20004E00642112F083
:100FA00031FC43469B195B7827006B7043469B5D81
:100FB00004002B70023D4F45EAD8FA239B009F4264
:100FC00052D23034E4B253461C70039B08989C46BE
:100FD000029C03786444A4B2002B26D0B922059960
:100FE0005200914221D2FC27404A8946A618069A0F
:100FF000451C9046079AB6B292467F0004E00A3438
:10100000A4B20135B4420FD01A00203A5E2A08D8A3
:10101000BC4206D800934A46534621004046FFF79B
:10102000DFFB2B78002BEAD10898049B984204D070
:101030005B469968013114F0E9FC0FB0F0BCBB4687
:10104000B246A946A046F0BD08AB9B460AAB049346
:10105000089353462D22991C584617F08FFD089B84
:101060009C46214BE24498464346524664001B1975
:101070005B78537043461C5DA5E708AB9B46053182
:101080000AAB51442D2258460493089317F076FD7D
:10109000089B3D009C46E24474E78F1D4D1D63E7AD
:1010A000CF1D8D1D60E708AB9B460AAB04930893E8
:1010B00053462D22591C584617F060FD089B9C464C
:1010C000E2447EE7032504274EE7022503274BE78A
:1010D0000F2700003F420F007F969800FFE0F505C4
:1010E0009F860100102700004CAC0110DE030000B9
:1010F000F02210B5090240181201552114F072FCBB
:1011000010BDC04608B4F0B50D00110082B01C231C
:101110006E460400C81D00AFC008FB18C000301A9E
:1011200004CB85463B60A8470500200008306E468A
:1011300020607D600F2D10D8012D0BD133782372E4
:1011400000236560BD464355200002B0F0BC08BCDA
:1011500001B01847002DF3D007E000222000391D10
:1011600017F0EEFC7B682060A3602A00310014F0C9
:101170003FFC7D682068E3E7F0B557464E46DE4603
:101180004546E0B58BB0994614AB1F7815AB1B787C
:1011900002900391169800219A46904614F0B6F9F1
:1011A000431E98410600002F18D0169B00255B00B7
:1011B0005B089B463B0001245F469B46A3001C192D
:1011C0006400200014F0B4F9391C14F0A7F9431E90
:1011D0009841013536185D45F0DB5F467B1C534571
:1011E0002CDA534616989D1B04AB9A4614F000FA6D
:1011F0002F4B009001913A2250462E49FFF782FF73
:10120000039B04989C46B400A419640003786444CA
:10121000A4B2EDB2002B02D0AFB2002D27D106ABA5
:10122000984204D053469968013114F0EFFB0BB09B
:10123000F0BCBB46B246A946A046F0BD04AB16982A
:101240009A4614F0D5F91A4B009001913A22504673
:101250001849FFF757FF039B04989C46B400A41954
:10126000640003786444A4B2002BD8D06327B92269
:1012700052009045D3D2863200259346461C05E0A5
:1012800001350A34AAB2A4B2BA420FD21A00203AE7
:101290005E2A08D85C4506D8009342464B4621009A
:1012A0000298FFF79DFA735D002BE9D10498B6E729
:1012B00048AC0110E9360110F0B557464E46454698
:1012C000DE46E0B51F0085B0BA4602930EAB1C881F
:1012D0008023884691460A7849788446090211435A
:1012E00049BA89B2514401949B00994257D8434668
:1012F0009878DB78A2461B0203435BBA9BB21800C6
:10130000C023504403905B00984248D843461A7962
:101310000723D50813404A460135D65C84423ED2A5
:101320008F423CD20723002404279B46C246019BE0
:1013300000911B029846029B19E062460F21125C45
:101340008A43614632430A540134E4B2AC4209D3C1
:10135000524658460137D25D0024D508024048461F
:10136000865C01350133009A9BB293420FD2042E62
:10137000EAD90122580840441A42DED162460F21C0
:10138000125C0A4031010A4361460A54DCE7019BC2
:1013900011000133039A9BB201939342C7D305B066
:1013A000F0BCBB46B246A946A046F0BDF0B56325E9
:1013B000CB005B1ACF499B0083B05B1800931600EB
:1013C0000F231422142101950400FFF705FD019558
:1013D0001F2E00DDA8E08C21C74B142220000093B3
:1013E00049000F23FFF7F8FC9621C44B322220005E
:1013F000009349000F230195FFF7EEFC300012F037
:10140000E5FC02000B000020002119F039FB12F06E
:10141000F5FC0127AF210F23322201904900200063
:101420000097FFF74DFDBE21B54B322200932000FF
:101430000F2301954900FFF7CFFC731C49D03742B9
:1014400000D1EDE00F2E00DD0CE1F30FF618374070
:10145000FF1A0195012F00D137E18221A94B20000D
:10146000009350220F234900FFF7B6FC8221A64BC0
:101470002000009364220F2301954900FFF7ACFC84
:101480008221A24B2000009378220F23019549006E
:10149000FFF7A2FC82219E4B200000938C220F2399
:1014A00001954900FFF798FC82219A4B2000009398
:1014B000A0220F2301954900FFF78EFC8221964B55
:1014C000B422009320000F2301954900FFF784FC0C
:1014D00013E08221914B50222000009349000F23FA
:1014E0000195FFF779FC82218D4B64220093200047
:1014F0000F2301954900FFF76FFC63259622894B66
:10150000200000931E210F2301955200FFF764FC79
:10151000A022854B1E21009320000F23019552002D
:10152000FFF75AFC03B0F0BD8C21804B1422200041
:10153000009349000F23FFF74FFC96216F4B322297
:101540002000009349000F230195FFF745FC300070
:1015500012F03CFC02000B000020002119F090FA70
:1015600012F04CFC0123AF213222019000932000A5
:101570000E334900FFF7A4FCBE21614B322220004C
:10158000009349000F230195FFF726FC82215D4B54
:1015900050222000009349000F230195FFF71CFC07
:1015A0008221594B64222000009349000F230195AA
:1015B000FFF712FC8221554B78222000009349004E
:1015C0000F230195FFF708FC8221514B8C2220004C
:1015D000009349000F230195FFF7FEFB82214D4B3D
:1015E000A0222000009349000F230195FFF7F4FB90
:1015F0008221494BB422009320000F23019549001A
:10160000FFF7EAFB202E00D177E78221484BC82262
:10161000009320000F2301954900FFF7DDFB6CE7E5
:1016200082213E4B50222000009349000F23019558
:10163000FFF7D2FB82213A4B6422009320000F2354
:1016400001954900FFF7C8FB002E00DC55E7822119
:10165000374B7822009320000F2301954900FFF7B4
:10166000BBFB4AE78221334B2000009350220F231B
:1016700001954900FFF7B0FB8221294B2000009320
:1016800064220F2301954900FFF7A6FB8221284B16
:101690002000009378220F2301954900FFF79CFB5F
:1016A0008221254B200000938C220F2301954900B5
:1016B000FFF792FB8221214BA022009320000F23F1
:1016C00001954900FFF788FB17E78221194B20009D
:1016D000009350220F234900FFF77EFB8221104B1D
:1016E0006422009320000F2301954900FFF774FB4B
:1016F000ADE7C046A4D1011040D6011068D6011054
:10170000ACB20110F0D6011000C5011018C50110CF
:1017100030C5011048C5011060C5011070D6011018
:1017200084D6011078C50110A8C5011054D6011047
:1017300098D60110ACD60110C4D60110D8D601102D
:10174000F0B54E464546DE465746E0B587B010AB8D
:101750001B789046994611AB9A7804000592DA7886
:1017600093461A7904925B799A46A0239B01C51887
:1017700094235B02C6182800013580225521FF35CD
:1017800014F030F9AE42F6D10A255E26F227CA23BC
:1017900044228021200001950096FFF7D7F9CA2343
:1017A000A822E421200001950096FFF7CFF9CA2373
:1017B000A822E421200001950097FFF7C7F98622AF
:1017C000CA2380212000520001950097FFF7BEF93F
:1017D0008622362380212000520001950097FFF7D2
:1017E000B5F93623A8221C21200001950097FFF7A8
:1017F000ADF93623A8221C21200001950096FFF7A1
:10180000A5F9362344228021200001950096FFF798
:101810009DF94B46002B00D0E8E04346002B00DB4F
:10182000A5E10F23019399330093A822283B80213F
:101830002000FFF78BF9434601333BD1059B9425EC
:101840009FB29A1C5B466D009EB2ED1A2823594642
:10185000FF335B1A0F2191468A46ADB29BB220003E
:10186000019104934946009313002A00FFF76EF993
:1018700093237A1C904652465B009E1BB6B24346A9
:1018800049462000019200963200FFF75FF9524668
:10189000049B390020000192009332003B00FFF7C7
:1018A00055F953462A00019339004346200000951C
:1018B000FFF74CF9AA2120004900FFF719FCB421D9
:1018C00020004900FFF714FC06250026AA22149BDD
:1018D0001E212000029301950F2352000096FFF76E
:1018E0004BFCB422159B1E2120000493029301950A
:1018F0000F2352000096FFF73FFC0227AA221C9BF1
:10190000C82120000493029301950F2300975200F1
:10191000FFF732FCB4221D9B5200C8212000029325
:1019200001950F230097FFF727FC7F235B429C461E
:101930000598E344C01813F0FBFD051C58464043CE
:1019400013F0F6FD291C071C281C13F0A2FD011C36
:10195000381C13F087FD13F04BFE12F08BFA12F0D7
:101960007DFA011CA54813F080FD13F041FE020032
:101970000B000020A24919F0DBF812F06FFA011CED
:10198000071C281C13F085FD13F09CFE804658466A
:1019900013F0CEFD391C13F07CFD13F093FE974934
:1019A000051C404613F061FD0727AA22B9210F2329
:1019B000029052002000019700964900FFF7DCFBDF
:1019C0008E49281C13F051FDB422B92102900F2337
:1019D00020000197009652004900FFF7CDFB07B0A9
:1019E000F0BCBB46B246A946A046F0BD012B00D0D4
:1019F000D1E04346002B00DBEBE00F23019399334A
:101A00000093A82280212000283BFFF79FF843463F
:101A1000013300D0CEE0049B94259FB29A1C53461C
:101A20006D009EB2ED1A28235146FF335B1A0F2139
:101A300091468846ADB29BB220000191059349467C
:101A4000009313002A00FFF781F893237A1C934632
:101A500042465B009E1BB6B25B464946200001929F
:101A600000963200FFF772F84246059B39002000CD
:101A70000192009332003B00FFF768F843462A00CA
:101A8000019339005B4620000095FFF75FF8AA211B
:101A900020004900FFF72CFBB42120004900FFF78C
:101AA00027FB06250026AA22169B1E21200005934F
:101AB000029301950F2352000096FFF75DFBB422BD
:101AC000179B1E2120000593029301950F235200BE
:101AD0000096FFF751FB0227AA221E9BC821200077
:101AE0000593029301950F2300975200FFF744FBE3
:101AF000B4221F9B5200C8212000029301950F239E
:101B00000097FFF739FB7F235B429C460498E24431
:101B1000C01813F00DFD051C5046404313F008FD9E
:101B2000291C071C281C13F0B4FC011C381C13F0E2
:101B300099FC13F05DFD12F09DF912F08FF9011C74
:101B40002E4813F092FC13F053FD02000B0000200E
:101B50002B4918F0EDFF12F081F9011C071C281C1D
:101B600013F097FC13F0AEFD8046504610E70C22B0
:101B7000019228225146FF32049B521A92B201333D
:101B800000928021A8222000FEF7E0FF43461F2B91
:101B900000DC8FE652E60F23019399330093A822CD
:101BA000283B80212000FEF7D1FF43461F2B00DD9C
:101BB00031E72CE7AA2120004900FFF799FAB42168
:101BC00020004900FFF794FA4B46002B00D068E74D
:101BD0007AE60C22019228225946FF32059B521ABE
:101BE00092B2013300928021A8222000FEF7AEFFBE
:101BF00043461F2B00DC4AE70DE7C0460000A04229
:101C00000000F03F70B56326CA00521A2C499200BA
:101C100082B052181D0000920F2314221421019645
:101C20000400FFF7D9F8002D3ED16325254B322261
:101C30001E212000009301950F23FFF7CDF8224BC2
:101C400046221E212000009301950F23FFF7C4F8C0
:101C50001E4B5A221E212000009301950F23FFF7EF
:101C6000BBF81B4B6E221E212000009301950F2311
:101C7000FFF7B2F8174B822200931E210F2320009A
:101C80000195FFF7A9F8159B9B6D0195002B09D0D5
:101C9000114B0093A0220F231E212000FFF79CF878
:101CA00002B070BD0D4BF4E796210D4B142200934A
:101CB00020000F2301964900FFF78EF8B5E7C046D4
:101CC000A4D101103CCE011024D5011058D501102B
:101CD00088D50110BCD5011074C90110E8C90110E4
:101CE000F4CC0110F0B5CE464746632680B587B0E8
:101CF0001E9B17009946B64B1422009314210F2304
:101D0000019604001F9DFFF767F8002F0DD0012FEB
:101D100000D16FE1022F00D1D7E0032F00D14CE2B8
:101D200007B0C0BCB946B046F0BDAA4B32221E2156
:101D30002000009301960F23FFF74EF88C21A64B4D
:101D400032222000009349000F230196FFF744F848
:101D5000119B46220293062398461E2120000193E0
:101D600000970933FFF708FA139B8C210593029320
:101D70004346462220000193490009330097FFF7AC
:101D8000FBF9129B5A220593029343461E21200021
:101D9000019300970933FFF7EFF9149B8C2105930A
:101DA000029343465A2220000193490009330097C9
:101DB000FFF7E2F9894B78221E212000009301965B
:101DC0000F23FFF709F88C21854B78222000009320
:101DD00049000F230196FEF7FFFF159B022505938F
:101DE000029343468C221E21200001930095093363
:101DF000FFF7C2F9179B8C210593029343468C226F
:101E000020000193490009330095FFF7B5F9169BAF
:101E1000A0220593029343461E21200001930095C2
:101E20000933FFF7A9F9189B8C21059302934346C8
:101E3000A02220000193490009330095FFF79CF987
:101E4000684BBE221E212000009301960F23FEF74F
:101E5000C3FF8C21644BBE222000009349000F2356
:101E60000196FEF7B9FF199BD222059302934346D0
:101E70001E212000019300950933FFF77DF91B9B7C
:101E80008C21059302934346D222200001934900FE
:101E900009330095FFF770F91A9BE6220593029328
:101EA00043461E210193200009330095FFF764F992
:101EB0001C9B009502934346019309338C21E62233
:101EC00020004900FFF758F92AE7484B32221E212B
:101ED0002000009301960F23FEF77EFF8C21444BD8
:101EE0003222009320000F2301964900FEF774FF71
:101EF000202398469C46A8444625E1444B460427A7
:101F000000261B682A001E212000029301970F2340
:101F10000096FFF731F94B465B682A0050212000FC
:101F2000029301970F230096FFF726F94B469B6813
:101F30002A0082212000029301970F230096FFF7C9
:101F40001BF94B46DB682A00B4212000029301975D
:101F50000F230096FFF710F943468C211B682A00D7
:101F60002000029349000F2301970096FFF704F920
:101F70004346A5215B682A002000029349000F23F5
:101F800001970096FFF7F8F84346BE219B682A00A8
:101F90002000029349000F2301970096FFF7ECF809
:101FA0004346D721DB682A00029320000F230197C4
:101FB00000964900FFF7E0F810239C4610353733B0
:101FC000ADB2FF33E144E0449D4297D1A8E6C0465C
:101FD000B0B2011078C80110D4C8011050C8011067
:101FE000ACC8011064C80110C0C8011088C8011035
:101FF000E4C80110994B32221E2120000093019663
:102000000F23FEF7E9FE4B461B68002702930A23C5
:10201000462298461E212000019300970533FFF7C2
:10202000ABF84B465B685A22029343461E212000C0
:10203000019300970533FFF79FF84B469B686E228C
:10204000029343461E212000019300970533FFF7BA
:1020500093F84B46DB688222029343461E21200000
:10206000019300970533FFF787F87D4B96221E21D9
:102070002000009301960F23FEF7AEFE4B461B692E
:10208000AA22029343461E212000019300970533A4
:10209000FFF772F84B465B69BE22029343461E214E
:1020A0002000019300970533FFF766F84B469B69C4
:1020B000D222029343461E2120000193009705334C
:1020C000FFF75AF84B46DB69E622029343461E218E
:1020D0002000019300970533FFF74EF88C21614BE8
:1020E00032222000009349000F230196FEF774FE70
:1020F0002B688C210293434646222000019349001D
:1021000005330097FFF738F86B688C21029343463C
:102110005A2220000193490005330097FFF72CF85D
:10212000AB688C21029343466E2220000193490044
:1021300005330097FFF720F8EB688C2102934346A4
:10214000822220000193490005330097FFF714F81D
:102150008C21454B96222000009349000F230196C5
:10216000FEF73AFE2B698C2102934346AA222000F7
:102170000193490005330097FEF7FEFF6B698C2140
:1021800002934346BE222000019349000533009785
:10219000FEF7F2FFAB698C2102934346D2220193F2
:1021A0002000053300974900FEF7E6FFEB69009732
:1021B000029343460193053380E62C4B32221E21C5
:1021C0002000019600930F23FEF706FE8C21284B7A
:1021D00001964E46009332220F2320004900FEF75D
:1021E000FBFD21362135FF36FF35433701CE21492E
:1021F00013F04FF913F0FCF91F4A204B11F04FFD7B
:1022000011F02CFE072399460193053B3A009846AE
:102210001E210290009320000D33FEF7ADFF01CD8B
:10222000144913F036F913F0E3F9134A134B11F084
:1022300036FD11F013FE4B468C21019343463A00C4
:102240000290009320000D334900FEF795FFA32371
:102250001037BFB25B009F42C8D161E520C90110B1
:1022600030C9011040C9011050C901109CC80110AB
:10227000F8C8011000003443182D4454FB210940D4
:1022800070B50400150086B0002A01D006B070BDFC
:1022900006264621FEF72CFF0D9B20000293009599
:1022A0000F2346221E210196FEF766FF8C210F9B0D
:1022B000462220000593029300950F2301964900C2
:1022C000FEF75AFF20005A21FEF712FF0E9B200056
:1022D0000593029300950F235A221E210196FEF7C3
:1022E0004BFF8C21109B5A222000059302930095EE
:1022F0000F2301964900FEF73FFF20008C21FEF7D7
:10230000F7FE119B02352000059302938C220F23C8
:102310001E2101960095FEF72FFF8C21139B8C2226
:1023200020000593029301960F2300954900FEF7C4
:1023300023FF2000A021FEF7DBFE129B2000059367
:102340000293A0220F231E2101960095FEF714FF91
:102350008C21149BA02220000593029301960F2349
:1023600000954900FEF708FF2000D221FEF7C0FECD
:10237000159B200005930293D2220F231E21019664
:102380000095FEF7F9FE8C21179BD22220000593C1
:10239000029301960F2300954900FEF7EDFE200001
:1023A000E621FEF7A5FE169B200005930293E62288
:1023B0000F231E2101960095FEF7DEFE8C21189B4F
:1023C000E622029320000F23019600954900FEF7B4
:1023D000D3FE5BE7F0B5C64663250400022700B5CF
:1023E000CB005B1ADD499B0082B05B1814221421DC
:1023F000009301950F23179EFEF7EEFCD84B322277
:102400001E212000009301950F23FEF7E5FCD54B1C
:1024100046221E212000009301950F23FEF7DCFCCD
:10242000D14B5A221E212000009301950F23FEF765
:10243000D3FCCE4B6E221E212000009301950F236A
:10244000FEF7CAFCCA4B82221E2120000093019590
:102450000F23FEF7C1FCC74B96221E2120000093DC
:1024600001950F23FEF7B8FC736E32225A2120002B
:10247000019300970F23FEF723FDB36E46225A21E6
:102480002000019300970F23FEF71AFDA823F358AD
:102490005A225A212000019300970F23FEF710FDC6
:1024A000AC23F3586E225A212000019300970F238A
:1024B000FEF706FD8023F35882225A212000019363
:1024C00000970F23FEF7FCFC8423F35896225A2131
:1024D0002000019300970F23FEF7F2FCA64B322257
:1024E00096212000009301950F23FEF775FCA34B66
:1024F000462296212000009301950F23FEF76CFCE5
:102500009F4B5A2296212000009301950F23FEF73E
:1025100063FC9C4B6E2296212000009301950F23B3
:10252000FEF75AFC984B82229621200000930195D9
:102530000F23FEF751FC954B962296212000009325
:1025400001950F23FEF748FC8823F3583222D2214D
:102550002000019300970F23FEF7B2FC8C23F35861
:102560004622D2212000019300970F23FEF7A8FCFA
:10257000B023F3585A22D2212000019300970F2351
:10258000FEF79EFCB423F3586E22D2212000019363
:1025900000970F23FEF794FC336B8222D221200098
:1025A000019300970F23FEF78BFC736B9622D221C9
:1025B0002000019300970F23FEF782FC8C21744BBF
:1025C00032222000009349000F230195FEF704FCFE
:1025D0008C21704B46222000009349000F23019567
:1025E000FEF7FAFB8C216C4B5A2220000093490025
:1025F0000F230195FEF7F0FB8C21684B6E22200023
:10260000009349000F230195FEF7E6FB644B8C21F4
:10261000984682222000009349000F230195FEF77F
:10262000DBFB43468C2196222000009349000F23B8
:102630000195FEF7D1FBAF21F36832220133200070
:10264000019349000F230097FEF73AFCAF2133694D
:10265000462201332000019349000F230097FEF723
:102660002FFCAF21336A5A222000019349000F2327
:102670000097FEF725FCAF21736A6E2220000193BC
:1026800049000F230097FEF71BFC0123AF215B429B
:102690009846822220000193490010330097FEF7EC
:1026A0000FFC4346AF2196222000019349001033CE
:1026B0000097FEF705FC3B4BAA221E212000009349
:1026C00001950F23FEF788FB336CAA2201930123A7
:1026D0006E21009320000E33FEF7F2FBB36D0195DF
:1026E000002B0ED0304B0093BE220F231E21200062
:1026F000FEF772FB3378062B2BD82C4A9B00D3585D
:102700009F462B4BEFE7632301932A4B0093D22282
:102710000F231E212000FEF75FFB02B080BCB846ED
:10272000F0BD63230193244BF0E763230193234B14
:10273000ECE763230193224BE8E763230193214BEA
:10274000E4E763230193204BE0E7632301931F4BEE
:10275000DCE7632301931E4BD8E7C046A4D10110E8
:10276000D8B20110E0B20110E8B20110F0B20110CD
:10277000F8B2011000B3011008B3011010B301103A
:1027800018B3011020B3011028B3011030B30110A9
:1027900038B3011040B3011048B3011050B3011019
:1027A00058B3011060B3011074C9011068B301106F
:1027B000E8C90110ACC90110D0C9011094C90110B9
:1027C000B8C90110DCC90110A0C90110C4C90110A9
:1027D00080C90110F0B5C64604001D00632300B592
:1027E000C800401A4449800082B04018160098463C
:1027F00001930090142214212000543B179FFEF7F0
:10280000EBFA002D6BD163253C4B32221E212000B8
:10281000009301950F23FEF7DFFA394B46221E2164
:102820002000009301950F23FEF7D6FA354B5A226C
:102830001E212000009301950F23FEF7CDFA324BA5
:102840006E221E212000009301950F23FEF7C4FA8B
:102850002E4B82221E212000009301950F23FEF7AC
:10286000BBFA2B4BA0221E212000009301950F23C1
:10287000FEF7B2FA7B6EA02201930123A0219846B5
:10288000200000930E33FEF71BFB8C21214BA0226E
:102890002000009349000F230195FEF79DFABB6EBF
:1028A000CD2101934346A022009320000E3349001E
:1028B000FEF706FB184BA022009301950F23002E74
:1028C00007D10A212000FEF787FA02B080BCB84683
:1028D000F0BD822120004900FEF77EFAF5E743466D
:1028E000962101930D4B1422009320000F234900E1
:1028F000FEF772FA87E7C046A4D1011000CA0110A2
:10290000A8C20110D0C2011000C3011030C30110D1
:102910006CC301107CC301104CC80110F4CC011031
:10292000F0B5C64604001D00632300B5C800401A78
:102930004549800082B040181700984601930090E6
:10294000142214212000543B179EFEF745FA002D57
:1029500000D06DE063253D4B32221E212000009304
:1029600001950F23FEF738FA394B46221E2120002D
:10297000009301950F23FEF72FFA364B5A221E21A2
:102980002000009301950F23FEF726FA324B6E22AA
:102990001E212000009301950F23FEF71DFA2F4BF7
:1029A00082221E212000009301950F23FEF714FAC6
:1029B0002B4BA0221E212000009301950F23FEF730
:1029C0000BFAA823F358A02201930123A0219846D3
:1029D000200000930E33FEF773FA8C21214BA022C6
:1029E0002000009349000F230195FEF7F5F9AC2371
:1029F000F358CD2101934346A022009320000E33CB
:102A00004900FEF75DFA184BA022009301950F23B1
:102A1000002F07D10A212000FEF7DEF902B080BCAA
:102A2000B846F0BD822120004900FEF7D5F9F5E750
:102A30004346962101930D4B1422009320000F234F
:102A40004900FEF7C9F985E7A4D1011000CA0110B9
:102A500030CA011060CA01108CCA0110BCCA011032
:102A60006CC301107CC301104CC80110F4CC0110E0
:102A7000F0B5C64604001D00632300B5C800401A27
:102A80004549800082B04018170098460193009095
:102A9000142214212000543B179EFEF79DF9002DAF
:102AA00000D06DE063253D4B32221E2120000093B3
:102AB00001950F23FEF790F9394B46221E21200085
:102AC000009301950F23FEF787F9364B5A221E21FA
:102AD0002000009301950F23FEF77EF9324B6E2202
:102AE0001E212000009301950F23FEF775F92F4B4F
:102AF00082221E212000009301950F23FEF76CF91E
:102B00002B4BA0221E212000009301950F23FEF7DE
:102B100063F98023F358A02201930023A021984653
:102B2000200000930F33FEF7CBF98C21214BA0221C
:102B30002000009349000F230195FEF74DF98423EF
:102B4000F358CD2101934346A022009320000F3378
:102B50004900FEF7B5F9184BA022009301950F2309
:102B6000002F07D10A212000FEF736F902B080BC01
:102B7000B846F0BD822120004900FEF72DF9F5E7A7
:102B80004346962101930D4B1422009320000F23FE
:102B90004900FEF721F985E7A4D1011000CA011010
:102BA00058CE011088CE0110B8CE0110E8CE011029
:102BB0006CC301107CC301104CC80110F4CC01108F
:102BC000F0B5C64604001D00632300B5C800401AD6
:102BD0004549800082B04018170098460193009044
:102BE000142214212000543B179EFEF7F5F8002D07
:102BF00000D06DE063253D4B32221E212000009362
:102C000001950F23FEF7E8F8394B46221E212000DC
:102C1000009301950F23FEF7DFF8364B5A221E2151
:102C20002000009301950F23FEF7D6F8324B6E2259
:102C30001E212000009301950F23FEF7CDF82F4BA6
:102C400082221E212000009301950F23FEF7C4F875
:102C50002B4BA0221E212000009301950F23FEF78D
:102C6000BBF88823F358A02201930023AA21984699
:102C7000200000930F33FEF723F98C21214BA02273
:102C80002000009349000F230195FEF7A5F88C233F
:102C9000F358D22101934346A022009320000F3322
:102CA0004900FEF70DF9184BA022009301950F2360
:102CB000002F07D10A212000FEF78EF802B080BC59
:102CC000B846F0BD822120004900FEF785F8F5E7FF
:102CD0004346962101930D4B1422009320000F23AD
:102CE0004900FEF779F885E7A4D1011000CA011068
:102CF00058CE0110B4CF0110DCCF011010D001105C
:102D00001CC801102CC801104CC80110F4CC0110D3
:102D1000F0B5C64604001D00632300B5C800401A84
:102D20004549800082B040181700984601930090F2
:102D3000142214212000543B179EFEF74DF8002D5D
:102D400000D06DE063253D4B32221E212000009310
:102D500001950F23FEF740F8394B46221E21200033
:102D6000009301950F23FEF737F8364B5A221E21A8
:102D70002000009301950F23FEF72EF8324B6E22B0
:102D80001E212000009301950F23FEF725F82F4BFD
:102D900082221E212000009301950F23FEF71CF8CC
:102DA0002B4BA0221E212000009301950F23FEF73C
:102DB00013F8B023F358A02201930123AA219846C7
:102DC000200000930E33FEF77BF88C21214BA022CC
:102DD0002000009349000F230195FDF7FDFFB42368
:102DE000F358D22101934346A022009320000E33D2
:102DF0004900FEF765F8184BA022009301950F23B8
:102E0000002F07D10A212000FDF7E6FF02B080BCA9
:102E1000B846F0BD822120004900FDF7DDFFF5E74F
:102E20004346962101930D4B1422009320000F235B
:102E30004900FDF7D1FF85E7A4D1011000CA0110B8
:102E400030CA011060CA0110D8CA0110BCCA0110F2
:102E50001CC801102CC801104CC80110F4CC011082
:102E6000F0B5C64604001D00632300B5C800401A33
:102E70004449800082B040181600984601930090A3
:102E8000142214212000543B179FFDF7A5FF002DAD
:102E90006BD163253C4B32221E212000009301950B
:102EA0000F23FDF799FF394B46221E212000009386
:102EB00001950F23FDF790FF354B5A221E2120006C
:102EC000009301950F23FDF787FF324B6E221E21E1
:102ED0002000009301950F23FDF77EFF2E4B8222E9
:102EE0001E212000009301950F23FDF775FF2B4B4A
:102EF000A0221E212000009301950F23FDF76CFFF7
:102F00003B6BA02201930223AA2198462000009344
:102F10000D33FDF7D5FF8C21214BA022200000931B
:102F200049000F230195FDF757FF7B6BD2210193D9
:102F30004346A022009320000D334900FDF7C0FF57
:102F4000184BA022009301950F23002E07D10A21D0
:102F50002000FDF741FF02B080BCB846F0BD8221E1
:102F600020004900FDF738FFF5E74346962101931D
:102F70000D4B1422009320000F234900FDF72CFF76
:102F800087E7C046A4D1011000CA011004CF011088
:102F900034CF011064CF011094CF01101CC8011070
:102FA0002CC801104CC80110F4CC011070B5632678
:102FB000CA00521A3F49920082B052181D00009276
:102FC0000F231422142101960400FDF705FF002DA4
:102FD0003ED16325384B32221E21200000930195FB
:102FE0000F23FDF7F9FE354B46221E2120000093EA
:102FF00001950F23FDF7F0FE314B5A221E212000D0
:10300000009301950F23FDF7E7FE2E4B6E221E2144
:103010002000009301950F23FDF7DEFE2A4B82224C
:103020001E212000009301950F23FDF7D5FE274BAD
:10303000A02200931E210F2320000195FDF7CCFE56
:10304000159B1B78062B32D8214A9B00D3589F46EC
:103050009621204B1422009320000F230196490053
:10306000FDF7BAFEB5E7632301931B4B0093A02243
:103070000F23C8212000FDF7AFFE02B070BD63230F
:103080000193164BF2E763230193154BEEE763239D
:103090000193144BEAE763230193134BE6E76323A1
:1030A0000193124BE2E763230193114BDEE7114BCF
:1030B0000195DBE7A4D101103CCE011008CB011033
:1030C0003CCB01106CCB011098CB011060C90110F2
:1030D00084B30110F4CC01102CCD01105CCD011093
:1030E00014CD01103CCD01106CCD01101CCD011090
:1030F0004CCD011004CD011070B56326CA00521AE0
:103100002E49920082B052181D0000920F23142203
:10311000142101960400FDF75FFE002D43D16325C5
:10312000274B2000009332220F231E210195FDF72B
:1031300053FE244B2000009346220F231E210195AD
:10314000FDF74AFE204B200000935A220F231E2138
:103150000195FDF741FE1D4B200000936E220F23C9
:103160001E210195FDF738FE194B200000938222A5
:103170000F231E210195FDF72FFE164B2000009313
:10318000A0220F231E210195FDF726FE159BA022EC
:103190001B6CBE2101930023200000930F33FDF729
:1031A0008FFE02B070BD96210B4B142200932000BD
:1031B0000F2301964900FDF70FFEB0E7A4D10110DF
:1031C0003CCE01107CCD0110ACCD0110DCCD011046
:1031D0000CCE011060C90110F4CC0110F0B56326CB
:1031E0000400002783B0434B179DBE221E2100938D
:1031F00001960F23FDF7F0FDEB68BE220133642139
:103200002000019300970F23FDF75AFE8C213A4BC3
:10321000BE222000009349000F230196FDF7DCFD3C
:10322000AF212B69BE2201332000019349000F23F7
:103230000097FDF745FE314BD2221E21200000935E
:1032400001960F23FDF7C8FD2B6AD22278212000BA
:10325000019300970F23FDF733FE8C21284BD222D8
:103260002000009349000F230196FDF7B5FDB92119
:103270006B6AD222019320000F2300974900FDF7CB
:103280001FFEEB68042B25D02A69042A15D063257C
:103290001C4B20000093FA220F231E210195FDF7FD
:1032A0009BFD9B22184B1E21009320000F230195AC
:1032B0005200FDF791FD03B0F0BD9343012BE6D022
:1032C000124B1E21009320000F230196E232FDF7DE
:1032D00083FDDCE72B69012BD9D0043B012BD6D928
:1032E0000B4BE62200931E210F2320000196FDF7D1
:1032F00073FDCCE72CD0011034D001103CD001106C
:1033000048D00110F8C7011008C801107CD0011086
:1033100054D00110F0B5DE46574645464E4687214B
:10332000E0B5490083B00400FDF7E2FE91212000E2
:103330004900FDF7DDFE632587226C4B1E2120002E
:10334000009352009A4601950F23FDF745FD912207
:10335000674B1E210093984620000F2301955200D1
:103360000FAEFDF739FD77787B0600D58EE0BB0602
:1033700000D598E0632587228C215E4B20000093C6
:1033800052004900994601950F23FDF725FDB379B9
:10339000872201939B21022320009B460093520029
:1033A0000D334900FDF78CFD91228C21524F0F23E4
:1033B00020005200490001950097FDF70DFDF379BB
:1033C000912201939B215B4652002000009349000B
:1033D0000D33FDF775FDA52120004900FDF788FE9E
:1033E000AF2120004900FDF783FE5346A5221E2190
:1033F0002000009352000F230195FDF7EDFC43469A
:10340000AF2200931E210F23200001955200FDF7EB
:10341000E3FC0CAB5E7873065DD4B3064FD4632334
:10342000A522984601938C214B4620000093520020
:103430000F234900FDF7D0FC0225A5229B210CAEED
:10344000B3792000019300950F2352004900FDF746
:1034500037FD4346AF228C21200001930097543B57
:1034600052004900FDF7B8FCAF229B21F379200000
:10347000019300950F2352004900FDF721FD03B091
:10348000F0BCBB46B246A946A046F0BD87221B4B06
:103490004621009320000F2301955200FDF79CFC6C
:1034A000BB0600D466E7632391220193134B4621A8
:1034B000009320000F235200FDF78EFC5AE7632390
:1034C000AF2201930D4B4621009320000F235200A1
:1034D000FDF782FCA3E7A522084B462100932000BC
:1034E0000F2301955200FDF777FC96E7A0B301107A
:1034F000A4B30110B0B30110B4B30110A8B301100C
:10350000F0B5C64604001D00632300B5C800401A8C
:10351000D749800084B04018170098460193009066
:10352000142214212000543B199EFDF755FC002D58
:1035300000D07EE06325CF4B32221E212000009375
:1035400001950F23FDF748FCCB4B46221E2120009E
:10355000009301950F23FDF73FFCC84B64221E2109
:103560002000009301950F23FDF736FCF3686422D9
:1035700001330193012350219846200000930E331C
:10358000FDF79EFC8C21BE4B642220000093490075
:103590000F230195FDF720FC336AAF2101934346C9
:1035A00064222000009349000E33FDF789FCB54BDF
:1035B000FA221E212000009301950F23FDF70CFC39
:1035C0009B22B14B520000931E210F232000019536
:1035D000FDF702FCAD4B6422009301950F23002FF1
:1035E00021D10A212000FDF7F7FBF368062B16D83E
:1035F0006325A74A9B00D35801959F46A54B82227D
:1036000000931E210F232000FDF7E6FBA24B01953E
:10361000009396220F231E212000FDF7DDFB04B04E
:1036200080BCB846F0BD822120004900FDF7D4FBE4
:10363000DBE7434696210193984B14220093200028
:103640000F234900FDF7C8FB74E7954B82221E212A
:10365000200000930F23FDF7BFFB924B96221E2103
:103660002000009301950F23FDF7B6FB8E4BAA2295
:103670001E212000009301950F23FDF7ADFB8B4B1E
:10368000BE2200931E210F2320000195FDF7A4FB0D
:10369000336A4F2BC3DC864B01953DE0854B82227C
:1036A0001E21200000930F23FDF796FB824B9622EC
:1036B0001E212000009301950F23FDF78DFB7F4B0A
:1036C000AA221E212000009301950F23FDF784FB01
:1036D0007B4BBE221E212000009301950F23FDF796
:1036E0007BFB306A11F024FF764911F0D2FE764957
:1036F00011F0B8FE06230193002302900093BE222E
:103700008C2120000F33FDF737FD3369042B00D0E7
:1037100085E7632301936D4B0093D2220F231E2173
:103720002000FDF759FB7AE7694B822200931E21A6
:103730000F232000FDF750FB3369042B00D06EE708
:10374000624B019564E7634B82221E2120000093A7
:103750000F23FDF741FB604B962200931E210F23A0
:1037600020000195FDF738FB3369042B00D056E7A4
:10377000564BAA2200931E210F2320000195FDF72E
:103780002BFB4CE7554B82221E21200000930F2378
:10379000FDF722FB336AC821019300238222200017
:1037A000009349000F33FDF78BFB4D4B96221E21F2
:1037B0002000009301950F23FDF70EFB494BAA2231
:1037C00000931E210F2320000195FDF705FB336AAE
:1037D0004F2B9ADC364BBE2200931E210F23200074
:1037E0000195FDF7F9FA90E73F4B82221E21200058
:1037F00000930F23FDF7F0FA374B96221E2120008D
:10380000009301950F23FDF7E7FA384BAA221E21FA
:103810002000009301950F23FDF7DEFA344BBE2202
:1038200000931E210F2320000195FDF7D5FA336A7E
:103830004F2B12DD3369012B00D1F0E6043B012B45
:1038400000D8ECE6632301932A4BE62200931E2165
:103850000F232000FDF7C0FAE1E6154BD2220093BA
:103860001E210F2320000195FDF7B6FAE2E7C046BE
:10387000A4D1011000CA0110E8D501108CC30110B9
:1038800094C30110F8C7011008C801104CC80110FA
:10389000B8B30110C4C30110F4C30110F4CC01107B
:1038A000B8C60110E8C6011004C7011034C70110E2
:1038B000B0C4011064C7011094C70110C0C7011043
:1038C000ECC701103480373CC217E63E4CC30110F0
:1038D0009CC3011024C4011058C4011088C40110F5
:1038E000D4C5011004C6011030C6011060C6011015
:1038F00090C6011054D00110F0B5C64604001D005A
:10390000632300B5C800401AD749800084B040182E
:103910001700984601930090142214212000543B74
:10392000199EFDF759FA002D00D07EE06325CF4B9C
:1039300032221E212000009301950F23FDF74CFA3F
:10394000CB4B46221E212000009301950F23FDF74B
:1039500043FAC84B64221E212000009301950F23D7
:10396000FDF73AFA336964220133019301235021B0
:103970009846200000930E33FDF7A2FA8C21BE4B2F
:1039800064222000009349000F230195FDF724FADB
:10399000736AAF21019343466422200000934900DB
:1039A0000E33FDF78DFAB54BFA221E21200000934D
:1039B00001950F23FDF710FA9B22B14B52000093A3
:1039C0001E210F2320000195FDF706FAAD4B64225E
:1039D000009301950F23002F21D10A212000FDF72C
:1039E000FBF93369062B16D86325A74A9B00D358E9
:1039F00001959F46A54B822200931E210F23200094
:103A0000FDF7EAF9A24B0195009396220F231E21A0
:103A10002000FDF7E1F904B080BCB846F0BD82217A
:103A200020004900FDF7D8F9DBE7434696210193D2
:103A3000984B1422009320000F234900FDF7CCF986
:103A400074E7954B82221E21200000930F23FDF77F
:103A5000C3F9924B96221E212000009301950F235B
:103A6000FDF7BAF98E4BAA221E2120000093019582
:103A70000F23FDF7B1F98B4BBE2200931E210F23BC
:103A800020000195FDF7A8F9736A4F2BC3DC864B24
:103A900001953DE0854B82221E21200000930F23DB
:103AA000FDF79AF9824B96221E2120000093019582
:103AB0000F23FDF791F97F4BAA221E2120000093CE
:103AC00001950F23FDF788F97B4BBE221E212000B4
:103AD000009301950F23FDF77FF9706A11F028FD1F
:103AE000764911F0D6FC764911F0BCFC062301930F
:103AF000002302900093BE228C2120000F33FDF79B
:103B00003BFBF368042B00D085E7632301936D4BE7
:103B10000093D2220F231E212000FDF75DF97AE7E2
:103B2000694B822200931E210F232000FDF754F9D8
:103B3000F368042B00D06EE7624B019564E7634B9A
:103B400082221E21200000930F23FDF745F9604BD0
:103B5000962200931E210F2320000195FDF73CF9CA
:103B6000F368042B00D056E7564BAA2200931E217F
:103B70000F2320000195FDF72FF94CE7554B8222CA
:103B80001E21200000930F23FDF726F9736AC82138
:103B90000193002382222000009349000F33FDF798
:103BA0008FF94D4B96221E212000009301950F2383
:103BB000FDF712F9494BAA2200931E210F23200082
:103BC0000195FDF709F9736A4F2B9ADC364BBE223B
:103BD00000931E210F2320000195FDF7FDF890E7CB
:103BE0003F4B82221E21200000930F23FDF7F4F8A3
:103BF000374B96221E212000009301950F23FDF7DD
:103C0000EBF8384BAA221E212000009301950F23C8
:103C1000FDF7E2F8344BBE2200931E210F23200053
:103C20000195FDF7D9F8736A4F2B12DDF368012B6C
:103C300000D1F0E6043B012B00D8ECE663230193AE
:103C40002A4BE62200931E210F232000FDF7C4F823
:103C5000E1E6154BD22200931E210F23200001958F
:103C6000FDF7BAF8E2E7C046A4D1011000CA01107E
:103C700014D601108CC3011094C30110F8C70110B1
:103C800008C801104CC80110D4B30110C4C30110FE
:103C9000F4C30110F4CC0110B8C60110E8C601103D
:103CA00004C7011034C70110B0C4011064C701106B
:103CB00094C70110C0C70110ECC701103480373C15
:103CC000C217E63EE0C401109CC3011024C40110D9
:103CD00058C4011088C40110D4C5011004C60110D5
:103CE00030C6011060C6011090C601107CD00110D2
:103CF00070B5632504001600CB005B1A36499B00A3
:103D000082B05B1814221421009301950F23FDF754
:103D100063F8324B32221E212000009301950F23BD
:103D2000FDF75AF82E4B78221E21200000930195B2
:103D30000F23FDF751F82B4B962200931E210F23E2
:103D400020000195FDF748F80223320001959A43BF
:103D500027D0254B46221E21200000930F23FDF77C
:103D60003BF8224B5A221E212000009301950F237D
:103D7000FDF732F81E4B962200930A210F232000F4
:103D80000195FDF729F8012E09DD63230193194BF5
:103D9000B42200931E210F232000FDF71DF802B06E
:103DA00070BD154B2000009346220F231E21FDF706
:103DB00013F8124B200000935A220F231E21019565
:103DC000FDF70AF80A4B782200930A210F232000FE
:103DD0000195FDF701F8D6E7A4D10110C4CB01107D
:103DE000DCCC0110E8CC011050CC01107CCC0110CF
:103DF0004CC80110ACCC0110F8CB011028CC01103C
:103E0000F0B5DE4657464E464546E0B589B012AE9F
:103E1000737815AF9A065B06D20FDB0F06920793F5
:103E2000B3787D780293F3784621039333790400C5
:103E3000049373790593AB066D06DB0FED0F99467E
:103E4000FDF756F9EB005D1B0835EBB2984663258C
:103E50008C21E44B46229A462000019500934900AC
:103E60004346FCF7B9FFBB79962101930223462212
:103E70009B462000009349004346FDF721F84B463E
:103E80004A46DB009B1A0833DBB29846D221D64B58
:103E90004622994620000195009349004346FCF7CD
:103EA0009BFFFB79DC2101935B46462220000093B7
:103EB00049004346FDF704F8B9213B782000DB06B2
:103EC000DA0FD3009B1AC94A0833DBB2019500927E
:103ED00049006422FCF780FF9621C54B7822984662
:103EE00020000195009349000A23FCF775FF7B78B9
:103EF0008C21DB07DA0F1B0F9B1A52460833200078
:103F0000DBB20195009249007822FCF765FF7B78CF
:103F1000A0219B07DA0FD3009B1A4A4608332000E2
:103F2000DBB20195009249007822FCF755FF9621FB
:103F30007B7820001B07DA0FD3009B1AAD4A0833A9
:103F4000DBB20195009249006422FCF745FF7B78C3
:103F500096215B07DA0FD3009B1A424608332000F4
:103F6000DBB20195009249008C22FCF735FFDC2181
:103F70003B782000DB07DA0F1B0F9B1A9E4A0833A1
:103F8000DBB20195009249008222FCF725FFD22185
:103F90003B7820009B07DA0FD3009B1A974A08331F
:103FA000DBB20195009249008722FCF715FFE6215C
:103FB0003B7820005B07DA0FD3009B1A904A083346
:103FC000DBB20195009249007D22FCF705FFB42188
:103FD0003B7820001B07DA0FD3009B1A894A08336D
:103FE000DBB201950092FF316E22FCF7F5FEE12174
:103FF0007B782000DB06DA0FD3009B1A824A083355
:10400000DBB20195009249005A22FCF7E5FEB4218B
:104010002000FDF76DF86B46197F5346CF007F1ADD
:104020008C210837FFB2B42220000195009349008B
:104030003B00FCF7D1FEB379962101935B46B42295
:104040002000009349003B00FCF73AFF6B46D22169
:104050001A7E4B46D700BF1A0837FFB2B4222000A1
:104060000195009349003B00FCF7B6FEF379DC2193
:1040700001935B46B4222000009349003B00FCF70B
:104080001FFFB92133782000DB06DA0FD3009B1A1B
:10409000564A0833DBB2019500924900D222FCF760
:1040A0009BFE43469621E62220000195009349009D
:1040B0000A23FCF791FE73788C21DB07DA0F1B0FC4
:1040C0009B1A524608332000DBB20195009249004A
:1040D000E622FCF781FE7378A0219B07DA0FD3005C
:1040E0009B1A4A4608332000DBB201950092490032
:1040F000E622FCF771FE9621737820001B07DA0F89
:10410000D3009B1A3B4A0833DBB201950092490069
:10411000D222FCF761FE737896215B07DA0FD30099
:104120009B1A424608332000DBB2019500924900F9
:10413000FA22FCF751FEDC2133782000DB07DA0F8E
:104140001B0F9B1A2C4A0833DBB2019500924900E1
:10415000F022FCF741FED221337820009B07DA0FD2
:10416000D3009B1A254A0833DBB20195009249001F
:10417000F522FCF731FEE621337820005B07DA0FE9
:10418000D3009B1A1E4A0833DBB201950092490006
:10419000EB22FCF721FEB421337820001B07DA0F55
:1041A000D3009B1A174A0833DBB201950092FF3106
:1041B000DC22FCF711FEE12173782000DB06DA0F28
:1041C000D3009B1A104A0833DBB2019500924900D4
:1041D000C822FCF701FEA0239B01E5180B4BE61853
:1041E00016E0C04618B401101CB4011020B4011030
:1041F00024B4011028B401102CB4011030B4011003
:1042000034B4011038B401103CB40110002901008D
:104210002800013581225521FF3511F0E3FBB5421D
:10422000F6D10A255E26F227200001950096CA23C2
:1042300044228021FCF78AFC200001950096CA23C5
:10424000A822E421FCF782FC200001950097CA23F4
:10425000A822E421FCF77AFC862220000195009731
:10426000CA2380215200FCF771FC862220000195B0
:104270000097362380215200FCF768FC200001954E
:1042800000973623A8221C21FCF760FC2000019532
:1042900000963623A8221C21FCF758FC200001952B
:1042A0000096362344228021FCF750FC04229446D9
:1042B000029B039A9FB26344984693B29946262381
:1042C000CC36FF33B61A9B1A0535B6B29BB2320014
:1042D00041462000009301954346FCF737FC9223AA
:1042E0004A465B009B1A9BB29A4652467B1E414649
:1042F000200000929BB20195FCF728FCBB1E9BB2EC
:1043000098462A234A46FF339B1A9BB2524641469F
:104310002000009301954346FCF718FC320041460B
:104320002000FB1C00960195FCF710FC049B9426D2
:104330009AB2904602229446634499462823059AED
:104340007600FF33B61A9B1AB6B29BB29A4649461C
:104350002000009397B24B4632000195FCF7F6FB24
:1043600093235B00DF1B263BBFB2FF3B43443A0075
:1043700049462000019500979B46FCF7E7FB534612
:104380003A0041462000009301954346FCF7DEFBCE
:104390005B4632004146200001950096FCF7D6FBB3
:1043A00009B0F0BCBB46B246A946A046F0BDC04627
:1043B000F0B557464E464546DE467F4CE0B5CF0049
:1043C0009A46E3195B7805000E009146984697B02F
:1043D000062B30D9F31E162B26D8784A9B00D358CB
:1043E0009F4606A90A00359B1493349B1393339B75
:1043F000129327AB13CB13C213CB13C213CB13C22D
:1044000013CB13C224AB03AA03CB03C21B881380B4
:104410006A4621AB03CB03C21B88192113802800F5
:1044200053464A46FFF7ECFC17B0F0BCBB46B24619
:10443000A946A046F0BD624A6323934601937B1AC6
:104440009B005B44009314220F231421FCF7C4FC4F
:104450004346002B1ED0330002373F192E000024A4
:104460003D004746984663230193295D2201CB0016
:10447000121B5B1A52009B005B44503200933221A6
:104480000F23300092B20134FCF7A6FCBC42EADBF9
:10449000350046464B461A01D21A63235200019357
:1044A000484B5032009314210F23280092B2FCF79E
:1044B00093FC8FE706A90A00359B1493349B139352
:1044C000339B129327AB13CB13C213CB13C213CB63
:1044D00013C213CB13C224AB03AA03CB03C21B88A2
:1044E00013806A4621AB03CB03C21B8831001380C3
:1044F000280053464A46FEF70DFF95E704A90A0037
:10450000359B1293349B1193339B109327AB13CBA2
:1045100013C213CB13C213CB13C213CB13C221ABE1
:1045200001AA03CB03C21B880321138000232800A8
:104530000093209A5346FDF703F975E704A90A0092
:10454000359B1293349B1193339B109327AB13CB62
:1045500013C213CB13C213CB13C213CB13C221ABA1
:1045600001AA03CB03C21B88052113800123280065
:104570000093209A5346FDF7E3F855E703A90A0094
:10458000359B1193349B1093339B0F9327AB13CB25
:1045900013C213CB13C213CB13C213CB13C26A467D
:1045A00021AB03CB03C21B8808211380280053468C
:1045B0004A46FDF765FE37E7A4D0011040B401106C
:1045C000A4D101104CC80110F0B557464E464546DF
:1045D000DE469946E0B5E64BCC009A461B195F785B
:1045E00006000D00904697B0002F6FD0062F07D918
:1045F000CB1E162B00D9D5E2DE4A9B00D3589F462E
:10460000DD4A632393460193631A9B005B441422A3
:10461000009302340F231421FCF7DEFB23006322F6
:1046200053441595002492461D0053460193295D7D
:104630002201CB00121B5B1A52009B005B445032DC
:10464000009332210F23300092B20134FCF7C4FBF7
:10465000BC42EADB43461A01D21A53465200019388
:10466000C64B5032009314210F23300092B2159D97
:10467000FCF7B2FB033D162D21D8C14BAD005B59B1
:104680009F466324BF4B14221421300000930194F1
:104690000F23FCF7A1FB8C21BB4B3222300000938F
:1046A00049000F230194FCF797FB8C21B74BA02204
:1046B000009330000F2301944900FCF78DFB17B0E5
:1046C000F0BCBB46B246A946A046F0BD9023B04A16
:1046D000B0490097FCF7F0FD6324A022AE4B972170
:1046E0003000009352000F230194FCF775FBAA22BF
:1046F000AA4BBA213000009352000F230194FCF71B
:104700006BFBAA22A64B0A213000009352000F2314
:104710000194FCF761FB219B1E21DA179B18534083
:10472000AA22019330000F2300975200FCF7C8FB28
:10473000219B002B9EDA0194633300DA28E2AA223F
:10474000984B4621009330000F235200FCF744FBA6
:1047500090E703A90A00339B1193329B1093319B7E
:104760000F9325AB13CB13C213CB13C213CB13C2BE
:1047700013CB13C26A4622AB03CB03C21B8817219B
:10478000138030004B464246FFF7B2FA97E703A981
:104790000A00339B1193329B1093319B0F9325ABEF
:1047A00013CB13C213CB13C213CB13C213CB13C23D
:1047B0006A4622AB03CB03C21B881621138030004C
:1047C0004B464246FFF798F879E703A90A00339B66
:1047D0001193329B1093319B0F9325AB13CB13C2D4
:1047E00013CB13C213CB13C213CB13C26A4622AB33
:1047F00003CB03C21B881521138030004B46424671
:10480000FEF77EFE5BE703A90A00339B1193329B00
:104810001093319B0F9325AB13CB13C213CB13C251
:1048200013CB13C213CB13C26A4622AB03CB03C212
:104830001B881421138030004B464246FEF7CEFC05
:104840003DE703A90A00339B1193329B1093319BE0
:104850000F9325AB13CB13C213CB13C213CB13C2CD
:1048600013CB13C26A4622AB03CB03C21B881321AE
:10487000138030004B464246FEF73EFC1FE703A97B
:104880000A00339B1193329B1093319B0F9325ABFE
:1048900013CB13C213CB13C213CB13C213CB13C24C
:1048A0006A4622AB03CB03C21B881221138030005F
:1048B0004B464246FEF77AFB01E703A90A00339B09
:1048C0001193329B1093319B0F9325AB13CB13C2E3
:1048D00013CB13C213CB13C213CB13C26A4622AB42
:1048E00003CB03C21B881121138030004B46424684
:1048F000FEF7B6FAE3E603A90A00339B1193329B55
:104900001093319B0F9325AB13CB13C213CB13C260
:1049100013CB13C213CB13C26A4622AB03CB03C221
:104920001B881021138030004B464246FEF7F0F9F9
:10493000C5E603A90A00339B1193329B1093319B68
:104940000F9325AB13CB13C213CB13C213CB13C2DC
:1049500013CB13C26A4622AB03CB03C21B880F21C1
:10496000138030004B464246FEF72AF9A7E6C046C0
:10497000A4D00110BCB40110A4D101104CC8011086
:1049800018B5011060D40110F0B3011004B4011087
:10499000F8C9011074B5011008C901103CC8011014
:1049A0009CB40110A0B4011003A90A00339B119319
:1049B000329B1093319B0F9325AB13CB13C213CBB8
:1049C00013C213CB13C213CB13C26A4622AB03CB61
:1049D00003C21B880E21138030004B464246FEF76F
:1049E00047F86CE603A90A00339B1193329B10939E
:1049F000319B0F9325AB13CB13C213CB13C213CB35
:104A000013C213CB13C26A4622AB03CB03C21B886B
:104A10000D21138030004B464246FDF781FF4EE6E4
:104A200003A90A00339B1193329B1093319B0F9380
:104A300025AB13CB13C213CB13C213CB13C213CBAF
:104A400013C26A4622AB03CB03C21B880C2113801E
:104A500030004B464246FDF7BDFE30E603A90A0092
:104A6000339B1193329B1093319B0F9325AB13CB48
:104A700013C213CB13C213CB13C213CB13C26A4698
:104A800022AB03CB03C21B880A21138030004B46A4
:104A90004246FDF79FFC12E603A90A00339B1193DF
:104AA000329B1093319B0F9325AB13CB13C213CBC7
:104AB00013C213CB13C213CB13C26A4622AB03CB70
:104AC00003C21B880821138030004B464246FDF785
:104AD00009F9F4E503A90A00339B1193329B109363
:104AE000319B0F9325AB13CB13C213CB13C213CB44
:104AF00013C213CB13C26A4622AB03CB03C21B887B
:104B00000721138030004B464246FDF77BF8D6E57F
:104B100004A90A00339B1293329B1193319B10938B
:104B200025AB13CB13C213CB13C213CB13C213CBBE
:104B300013C222AB01AA03CB03C21B880521138039
:104B4000012330000093209A4B46FCF72FFCB6E57A
:104B500004A90A00339B1293329B1193319B10934B
:104B600025AB13CB13C213CB13C213CB13C213CB7E
:104B700013C222AB01AA03CB03C21B8803211380FB
:104B8000002330000093209A4B46FCF70FFC96E57B
:104B9000AA22104B5021009330000F235200FCF743
:104BA0001BF967E56327641B0B4DA40064193000F3
:104BB0000F231422142101970094FCF70DF9074BE1
:104BC000B422009350210F2330000197FCF73EF9E7
:104BD00075E5C046A0B40110A4D10110A8B401101D
:104BE00010B504000B689847200010BD012A03D0BF
:104BF000022A03D0002070470160FBE70B680360C6
:104C0000F8E7C046F0B5DE46454657464E46E0B5A5
:104C1000831E04000D0093468FB09B0700D10BE16B
:104C200003000F220F33D917090F5B1813405B1ACB
:104C3000411C0393CB171B0FC9180A40D31A0493C6
:104C400000230B93039B9F005B46DE59049B301CA3
:104C50009B0098465B4642469B58191C994610F0AB
:104C60005DFC002809D0484610F0C2FCA24AA34BC4
:104C70000FF00CF80FF0F2F88146A300EC580893FF
:104C80004346EF59ED58201C291C10F047FC002822
:104C900009D0281C10F0ACFC974A984B0EF0F6FF98
:104CA0000FF0DCF8051C301C10F0A2FC0090019104
:104CB000391C201C10F0D3FB824610F099FC904A5E
:104CC000904B069007910FF008F8009A019B0EF0A8
:104CD000DDFF0FF0C3F80990484610F089FC06008C
:104CE0000F00281C211C10F0BAFB814610F080FC3C
:104CF000854A864B04000D000EF0EFFF02000B000A
:104D0000300039000C920D930EF0B7FF0FF0A6F8AB
:104D100029007B4A7B4B059020000EF0DEFF02004D
:104D20000B00300039000EF0A8FF0FF097F8764A1C
:104D3000764B0A90069807990EF0CFFF02000B0001
:104D400004000D00009801990EF0A0FF0FF086F806
:104D50000323039A8046134200D0BDE00B9B002B37
:104D600000D17CE0059810F043FC04000D00099888
:104D700010F03EFC22002B0015F082FE0FF06EF8C2
:104D8000061C404610F034FC04000D000A9810F098
:104D90002FFC22002B0015F0CBFE0FF05FF88046B1
:104DA000011C301C10F0BAFB002809D0404610F05E
:104DB0001FFC514A514B0EF069FF0FF04FF880462F
:104DC0004146301C10F0AAFB002809D0404610F0E4
:104DD0000FFC494A494B0EF059FF0FF03FF880464F
:104DE000089B301C9C46E34410F002FC5B46060026
:104DF0000F00186810F0FCFB32003B0015F040FE7D
:104E0000040040460D0010F0F3FB06000F002000E8
:104E100029000FF023F810F0EBFB3B00320015F0F7
:104E200087FE0FF01BF85B4618600FB0F0BCBB4666
:104E3000B246A946A046F0BD03000F220E33D91793
:104E4000090F5B1813405B1A811C0393CB171B0FD0
:104E5000C9180A40D31A049301230B93F2E6504673
:104E60002B4910F05BFB002814D05046294910F064
:104E70003FFB00280ED00022274B2000290015F010
:104E8000FFFD02000B00009801990EF0FFFE0EF0EE
:104E9000E5FF8046049B9B0700D063E748461C491A
:104EA00010F03CFB002800D15CE74846194910F09F
:104EB0001FFB002800D155E70C980D990022164BD6
:104EC00015F0DEFD02000B00300039000EF0D5FEBB
:104ED0000EF0C4FF059045E7049A134200D041E765
:104EE0000B9B002B00D03DE74846094910F016FB0C
:104EF000002800D136E7D8E7182D4454FB2119408B
:104F0000666666666666E63FCDCCCCCCCCCCF43F1C
:104F1000D9891D3E87F29A3EE535D43FF0B54F461C
:104F20004646D646C0B50E1C071C011C301C9946CF
:104F3000089D904610F08AFB90235B00E958041C02
:104F400010F0D6FA002809D0201C10F051FB8C4A32
:104F50008C4B0EF09BFE0EF081FF041C92235B0035
:104F6000E958201C10F0C4FA002800D0A8E09423CF
:104F70005B00E958201C10F0BBFA002800D0D8E0F4
:104F800096235B00E958201C10F0B2FA002800D0EC
:104F9000D5E098235B00E958201C10F0A9FA0028FE
:104FA00000D0CFE09A235B00E958201C10F0A0FA53
:104FB000002800D0C9E09C235B00E958201C10F0B9
:104FC00097FA002800D0C3E09E235B00E958201C1C
:104FD00010F08EFA002800D0BDE0A0235B00E95855
:104FE000201C10F085FA002800D0B7E0A2235B0057
:104FF000E958201C10F07CFA002800D0B1E0A4236E
:105000005B00E958201C10F073FA002800D0ABE0D8
:10501000A6235B00E958201C10F06AFA002800D093
:10502000A5E0A8235B00E958201C10F061FA0028D5
:1050300000D09FE0AA235B00E958201C10F058FA2A
:10504000002800D078E0AC235B00E958201C10F069
:105050004FFA002800D090E0AE235B00211CE858F6
:1050600010F05CFA0F2400282BD1A31C1B01595906
:10507000381C10F00EFA24012D19696A8246301C82
:1050800010F007FA011C504610F0ECF94346186086
:10509000A96A381C10F0FDF9E96A041C301C10F0F4
:1050A000F8F9011C201C10F0DDF94B461860099B33
:1050B000041C013307D0E0BCBA46B146A846F0BD97
:1050C0000124013CD1E74346186810F053FA431D10
:1050D0000500201C0A2B19D910F04CFA431D0A2B8D
:1050E00023D8EA17AB185340502B1EDD00234A4645
:1050F00013604346186810F03DFA02300428DAD8ED
:105100000023424613604A461360D4E710F032FA97
:10511000C21783185340502B07DD0023424613600B
:105120004B46186810F026FAE7E70235042DC2D87E
:10513000E3E70224013C98E70D24013C95E70324B2
:10514000013C92E70424013C8FE70524013C8CE7F5
:105150000624013C89E70724013C86E70824013C3A
:1051600083E70924013C80E70A24013C7DE70B2406
:10517000013C7AE70C24013C77E70E24013C74E7FC
:10518000182D4454FB211940F0B557464E4645466C
:10519000DE460300E0B5203393B00F932033109325
:1051A000203311930EAB984618230793153B0593B4
:1051B000013B0493013B0D930023C2461E0008905F
:1051C0000E90069021E1721C55460A92032E00D1E2
:1051D0003EE10894534604331D000B9353465B682D
:1051E000029998465B441A685B6814005B00994614
:1051F00020004C460C924B08019A61080EF0CEFD3F
:10520000002800D045E10EAB9C46049BB5006544E8
:10521000042B38D053469B68554698465B441A6821
:105220005B6814005B00994620004C4602990C9282
:105230004B08019A610808350EF0B0FD002800D037
:1052400031E10EAB9C46059BB5006544042B1AD09A
:105250005346DB6855469946D94498464B465B68A9
:105260004C465B009C46206864460299019A4B08B4
:1052700061080C350EF092FD002800D0E9E00EAB7D
:105280009C46B5006544089B9846002E00D0E0E09F
:105290003C687D680022002320002900B8460EF0FB
:1052A0005FFD002800D0DFE1069B019353465B6859
:1052B0001A005A4406939146536812681000190068
:1052C00022002B00029003910EF0E9FC0022002343
:1052D00006000F000EF044FD002800D1EDE0049B15
:1052E000042B00D183E043461C685D6853469B68ED
:1052F0001A005A440293914653681268100019002C
:1053000022002B00089009910EF0C9FC0022002316
:1053100006000F000EF024FD002800D123E1059BBC
:10532000042B64D05346DB689946D94498464B46D3
:105330001A685B681000190022002B00029003918C
:105340000EF0ADFC0022002306000F000EF008FD59
:1053500000284CD122002B00300039000EF0BDFC9B
:1053600002000B00029803990EF087FC4B46186070
:1053700059605B4642460833D418019A300094467F
:1053800063441A685B6839000EF0A7FC02000B004A
:10539000206861680EF071FC079D019A2B0094460D
:1053A000206061604146083BCC1863441A685B6822
:1053B000300039000EF091FC02000B00206861689B
:1053C0000EF05BFCAC4620606160019B2C006344E6
:1053D0001A685B68300039000EF07FFC444402001C
:1053E0000B00206861680EF048FC206061600E9B35
:1053F0000A9E0893049B01330493059B0133059394
:105400000B9B9A46079B08330793F3009B46069C29
:10541000089B27005B441A685F4490465D687A6881
:10542000396853006D000A000191029340465B0801
:1054300069080EF09DFC002800D0C4E6731C0A9396
:10544000032E00D1E4E04346002601930295C1E615
:10545000A0460D9B42465B420D9353461A60069B45
:1054600000222B6053461B6801935B441C685D68F7
:1054700098462000002329000EF072FC002800D07E
:10548000F2E00A9B042B00D1CAE0534604330B938D
:105490000CE7049B042BDCD00C9B0A9E0193434633
:1054A00002940893B6E6059B042BD2D00C9B049E75
:1054B0000193434602940893CAE622002B00300071
:1054C00039000EF00AFC02000B00029803990EF05E
:1054D000D4FB4C46206061605946019A08319446DD
:1054E0000B00069D63441A685B686C183000390035
:1054F0000EF0F3FB0B000200206861680EF0BDFBAC
:10550000049B20606160042B00D170E7019A079B27
:105510009446083BEC1863441A685B683000390015
:105520000EF0DBFB02000B00206861680EF0A5FBAB
:10553000206061600598042800D1D4E607992C000A
:105540008C46019B300063441A685B6839006444F0
:105550000EF0C3FB02000B00206861680EF08DFBAB
:1055600020606160BFE632003B00200029000EF0A1
:10557000B4FB02000B00089809990EF07EFB4C4624
:10558000206061605946019A083194460B00029DE3
:1055900063441A685B686C18300039000EF09DFB9C
:1055A00002000B00206861680EF067FB019A079B00
:1055B000944620606160083BEC1863441A685B689D
:1055C000300039000EF089FB02000B002068616892
:1055D0000EF053FB206061600598042800D106E7B7
:1055E00007992C008C46019B300063441A685B6865
:1055F000390064440EF071FB0B0002002068616802
:105600000EF03BFB4346206061601C685D6889E6E4
:1056100000223868796800230EF0A2FB002823D10D
:105620000F990E9B8868C9681A685B680EF055FB75
:10563000109B1A695B690EF050FB119B9A69DB693C
:105640000EF04BFB04000D980D000EF0BFFB0200A6
:105650000B00200029000EF040FB13B0F0BCBB464D
:10566000B246A946A046F0BD00200021F5E7C0469D
:10567000F0B5DE46454657464E46E0B5B84C050007
:10568000A54492460C00A022002158A810F0AAF9C7
:10569000A4220021520080A810F0A4F9A8462823D3
:1056A0004344A1469B4600240023029303940093A5
:1056B0000194009801994346C0CB98464B4600227E
:1056C00030CB9946A74B109411950EF0DFFA829AD1
:1056D000839B00900191300039000EF0D7FA03004F
:1056E0000C003200049305948293839430003B00B5
:1056F00039000EF0F2FA849A859B04000D000EF03A
:10570000C5FA02000B00300006920793849285933D
:10571000390022002B00129413950EF0DEFA869ABF
:10572000879B04000D000EF0B1FA0A0001002B0067
:1057300008910992869187923000220039001494D2
:1057400015950EF0CAFA889A899B04000D000EF098
:105750009DFA0A0001002B000A910B928891899210
:105760003000220039000EF0B8FA8A9A8B9B0400B0
:105770000D000EF08BFA0A0001002B000C910D9227
:105780008A918B923000220039000EF0A6FA8C9A92
:105790008D9B0EF07BFA03000C00029803990E9388
:1057A0000F948C938D94109C119D22002B000EF071
:1057B0006DFA22002B0002900391300039000EF0A8
:1057C0008CFA5A9A5B9B0EF061FA0A0001002000E5
:1057D000109111925A915B92129A139B29000EF02C
:1057E0007CFA5C9A5D9B0EF051FA06000F002000D7
:1057F00029005C965D97149A159B0EF06EFA5E9ADE
:105800005F9B0EF043FA04000D005E945F95C34564
:1058100000D04EE706980799009A019B1C901D91B5
:10582000229023912890299112961397049E059F08
:105830001A961B97209621970A9E0B9F30003900DD
:1058400018921993089A099B2C902D9132903391BC
:105850001E921F93249225932A922B933092319378
:105860000E9A0F9B18A93692379338A88022269655
:1058700027970C9E0D9F2E962F973496359710F0F4
:10588000B7F838A8FFF780FC802206000F0038A880
:1058900018A910F0ADF838AB984618235344169465
:1058A00017959946454614961597029B039C38A870
:1058B0002B606C60109B119C2B626C62129B139C82
:1058C0002B646C64169B179C2B666C66FFF75CFC64
:1058D000149A159B0EF0E3F9049E059F4B463A96E9
:1058E0003B97186059600699079A009B019C3C9170
:1058F0003D924291439248914992409641970A9E27
:105900000B9F3A0031004C914D92529153920822D4
:105910005242944638933994089B099C3E933F9495
:10592000449345944A934B94509351940E9B0F9CEF
:10593000569357944B46469647970C9E0D9F0835B5
:105940004E964F9754965597E1449A45ADD1D3233F
:105950009B009D44F0BCBB46B246A946A046F0BDA4
:10596000B4FCFFFF0000F03F10B511200AF0BAFDB3
:105970000022012111200AF089FDD0248023240671
:105980009B02A36210200AF0ADFD0022012110202D
:105990000AF07CFD80235B02A3620B200AF0A2FDCB
:1059A000002201210B200AF071FD80231B01A3625C
:1059B00009200AF097FD0022012109200AF066FD66
:1059C00080239B00A36208200AF08CFD00220121A5
:1059D00008200AF05BFD80235B00A3620A200AF026
:1059E00081FD002201210A200AF050FD8023DB0006
:1059F000A36216200AF076FD0022012116200AF08B
:105A000045FD8023DB03A36215200AF06BFD002215
:105A1000012115200AF03AFD80239B03A362122086
:105A20000AF060FD0022012112200AF02FFD8023E0
:105A3000DB02A36213200AF055FD0022012113208E
:105A40000AF024FD80231B03A36214200AF04AFD00
:105A50000022012114200AF019FD80235B03A362B8
:105A600005200AF03FFD0022012105200AF00EFD6D
:105A700020233449A362344812F0C0FE01210620DD
:105A80000AF0ECFC012107200AF0E8FC01210420C7
:105A90000AF0E4FC18200AF025FD80235B04636211
:105AA000172063610AF01EFD80231B04636263619B
:105AB00012F0D2FC1F211B200AF0D0FC0022002192
:105AC0001B200AF0E3FC00211B200AF0F7FC1F2139
:105AD0001A200AF0C3FC002200211A200AF0D6FC8A
